:020000040800F2
:100000009822002045010008A51500086D0C000885
:10001000A1150008C5030008B12F0008000000006A
:100020000000000000000000000000000D2C00088F
:100030002506000800000000531A0008F92C0008EB
:100040005F0100085F0100085F0100085F01000810
:100050005F0100085F0100085F0100085F01000800
:100060005F010008290600085F0100085F01000821
:100070005F0100085F0100085F0100085F010008E0
:100080005F0100085F0100085F0100085F010008D0
:100090005F0100085F0100085F0100085F010008C0
:1000A0005F0100085F0100085F0100085F010008B0
:1000B0005F0100085F0100085F0100085F010008A0
:1000C0005F0100085F0100085F0100085F01000890
:1000D0005F0100085F0100085F0100085F01000880
:1000E0005F0100085F0100085F0100085F01000870
:1000F0005F0100085F0100085F0100085F01000860
:100100005F010008552000085F0100085F0100083A
:100110005F0100085F0100085F0100085F0100083F
:100120005F0100085F0100085F0100085F0100082F
:10013000DFF80CD000F0EAF800480047D139000899
:10014000982200200648804706480047FEE7FEE761
:10015000FEE7FEE7FEE7FEE7FEE7FEE7FEE7FEE777
:10016000952D00083101000840EA01039B0703D0E8
:1001700009E008C9121F08C0042AFAD203E011F8E6
:10018000013B00F8013B521EF9D27047F0B480EAFF
:100190000102D40F4200B2EB410F02D202460846E0
:1001A00011464A0042D0C30DDDB2C1F3C752AD1AA9
:1001B000202D35DAC1F3160141F4000204B1524298
:1001C000C5F1200602FA06F12A411044B3EBD05FD4
:1001D00023D0C4B1012DA0EBC35009DCF0BC4FF01B
:1001E000004202EAC352DBB200F5000000F060B842
:1001F000400000F1807000EBC350A0F1807040EA35
:10020000D170490009E0490841EAC071A0EBC35030
:1002100000F50000400800EBC350F0BC00F03FB810
:100220006142012202EB4101001BF6E7F0BC70477E
:1002300081F00041AAE780F00040A7E72DE9F05FD8
:100240000546002092469B46884606468146402445
:100250001BE0284641464746224600F078F85346C0
:100260005A46C01A914110D311461846224600F052
:100270005FF82D1A67EB01084F4622460120002146
:1002800000F056F817EB00094E41201EA4F10104BE
:10029000DFDC484631462A464346BDE8F09F002948
:1002A000A8BF7047401C490008BF20F001007047FC
:1002B00010B4B0FA80FC00FA0CF050EA010404BF5C
:1002C00010BC704749B1CCF1200421FA04F411FAB2
:1002D0000CF118BF012121430843A3EB0C01CB1DF6
:1002E0004FEA00614FEA102042BF002010BC704767
:1002F00000EBC35010440029A4BF10BC7047401C41
:10030000490008BF20F0010010BC7047064C074DA3
:1003100006E0E06840F0010394E8070098471034D5
:10032000AC42F6D3FFF708FF1C7900083C790008BF
:10033000202A04DB203A00FA02F1002070479140A5
:10034000C2F1200320FA03F3194390407047202A9A
:1003500004DB203A21FA02F00021704721FA02F36F
:10036000D040C2F12002914008431946704770B551
:100370008C1810F8015B15F0070301D110F8013B50
:100380002A1106D110F8012B03E010F8016B01F8D7
:10039000016B5B1EF9D12B0705D40023521E0DD42F
:1003A00001F8013BFAE710F8013BCB1A921C03E07D
:1003B00013F8015B01F8015B521EF9D5A142D8D3B5
:1003C000002070BD00BFFEE770B500254FF48034FB
:1003D00000E0641E24B1802001F01CFE0028F8D04B
:1003E00014B90325284670BD40F2FF5001F0CAFD44
:1003F0002846F8E7014600BF0748406B00F045007B
:100400000028F9D040F2FF50034A9063104640693B
:1004100008221040C0B270470080014070B500252E
:100420001048446B01E00F48446B04F0450000287D
:10043000F9D004F0040028B10325042001F0A2FD46
:10044000284670BD04F0010028B10125012001F00B
:1004500099FD2846F5E740F2FF5001F093FD28464C
:10046000EFE700000080014070B500250B48446BA9
:1004700001E00A48446B04F045000028F9D004F07C
:10048000040028B10325042001F07CFD284670BD3E
:1004900040F2FF5001F076FD2846F8E70080014069
:1004A0002DE9F04106460F464FF000082248456B03
:1004B00001E02148456B05F045000028F9D005F022
:1004C000040038B14FF00308042001F05BFD404602
:1004D000BDE8F08105F0010030B14FF001080120C6
:1004E00001F050FD4046F3E701F08EFDB04203D02D
:1004F0004FF010084046EBE740F2FF5001F042FD9C
:10050000002001F09BFD044604F4604018B9200C63
:1005100038804046DCE704F4005008B11320D7E7E8
:1005200004F4804008B11020D2E704F4004008B180
:100530000F20CDE74046CBE70080014070B5002694
:100540004FF480350F48446B02E06D1E0D48446B3C
:1005500004F0450008B9002DF7D115B104F00400EE
:1005600028B10326042001F00DFD304670BD04F0D3
:10057000400028B10026402001F004FD3046F5E798
:100580003046F3E70080014000F0805111B103498B
:10059000086001E00249486070470000040402401E
:1005A0000000024021B1026842F00102026004E052
:1005B00002684FF6FE731A40026070470146002041
:1005C000002201F0805313B1054B1A6801E0054B7E
:1005D0001A6802EA01030BB1012000E00020704715
:1005E000000402400000024010B50022026847F6F5
:1005F000F0739A430C6A8B6823430C6923434C695C
:1006000023438C692343CC6923434C6A23438C6A7C
:1006100023431A430260CB6843600B6883604B68D6
:10062000C36010BD7047000010B5082000F038F816
:1006300000B31148007878B91020104948610820AB
:100640000F49086001200C49087008200C49086017
:1006500010200A4908610AE007480078012806D1FD
:1006600008200749091D0860022003490870082076
:1006700000F008F810BD0000DD000020001001406F
:100680001014014001490860704700001404014043
:10069000024909680143014A116070471004014092
:1006A000014600200022074B1B6803EA0102054BAC
:1006B00014331B680B4013B10AB1012000E0002085
:1006C0007047000000040140002123498279002A7C
:1006D0003AD00A46126803689A430B461A600A1D0C
:1006E000126803689A430B1D1A60027911440A6864
:1006F00003681A430A60184A0832126803689A436A
:10070000154B08331A601A1D126803689A43124B7E
:100710000C331A604279102A0ED11A1F126803682E
:100720001A430D4B08331A601A1D126803681A43E6
:10073000094B0C331A600DE00749427911440A68ED
:1007400003681A430A6005E0027911440A680368E5
:100750009A430A60704700000004014008B5012177
:100760003C2001F087F910208DF8030003208DF85C
:1007700002000820ADF8000069461A4800F0DEF9D2
:100780001020ADF800006946174800F0D7F90420A2
:10079000ADF800006946134800F0D0F92020ADF80C
:1007A00000006946104800F0C9F90820ADF80000C3
:1007B00069460E4800F0C2F94FF47F40ADF80000E2
:1007C00004208DF8030003208DF8020069460848D4
:1007D00000F0B4F9082003491431086003491031CE
:1007E000086008BD000801400010014000140140ED
:1007F000000C014051B18200A2F1C042126842F0E7
:1008000001038200A2F1C042136009E08200A2F15C
:10081000C0421268034B1A408300A3F1C0431A6020
:1008200070470000FEFF0F00D0E901121143C268BB
:100830001143026911434269114382691143C2693C
:100840001143026A1143426A1143826A1143C26A28
:100850001143026B114302689200A2F1C042116081
:10086000816808290BD101688900A1F1C04109689C
:1008700041F0400201688900A1F1C0410A60416B6A
:100880000968426B526841EA0211426B926841EA80
:100890000221426B928941EA0241426B128A41EA8B
:1008A0000251426B127D41EA0261426B926911432F
:1008B0000268521C9200A2F1C0421160C16AB1F5F7
:1008C000804F1BD1816B0968826B526841EA02112B
:1008D000826B926841EA0221826B128A41EA0251DC
:1008E000826B127D41EA0261826B92691143026858
:1008F0009200A2F1C042C2F8041107E06FF070420A
:1009000001688900A1F1C041C1F8042170470000CD
:100910002DE9FC4107460D460026002400200090EA
:10092000019008205D4908601020486040208860E0
:100930000020C8604FF480600861084601F0BCFBED
:100940001020FFF757FD044614B12046BDE8FC8196
:10095000534800880004514908603720486040200F
:1009600088600020C8604FF480600861084601F08C
:10097000A3FB3720FFF73EFD04460CB12046E5E718
:100980004FF0FF30474908600820486030208860F9
:100990000220C8600020086101204861084601F07B
:1009A00009FB00203D4908603320486040208860F2
:1009B0000020C8604FF480600861084601F07CFBAD
:1009C0003320FFF717FD04460CB12046BEE70CE0CC
:1009D0004FF4001001F01EFB38B101F067FB4DF839
:1009E0002600761C012E00D906E02F48406B40F20D
:1009F0002A6108400028EBD000BF082001F00AFB64
:100A000028B1082001F0BEFA042420469EE7022007
:100A100001F000FB28B1022001F0B4FA02242046C4
:100A200094E7202001F0F6FA28B1202001F0AAFA7C
:100A3000062420468AE74FF4007001F0EBFA30B14B
:100A40004FF4007001F09EFA072420467EE740F242
:100A5000FF5001F097FA00980006009901F47F41D9
:100A600040EA0120009901F47F0140EA1120009939
:100A700040EA1160686001980006019901F47F4125
:100A800040EA0120019901F47F0140EA1120019917
:100A900040EA11602860204658E700006C120020F0
:100AA00014010020801200200080014008B50121BF
:100AB000302000F0DFFF4FF4F850ADF800000320C5
:100AC0008DF8020018208DF803006946094800F0EF
:100AD00035F80420ADF800006946074800F02EF80C
:100AE0000121880200F0B6FF0121022000F0B2FFD0
:100AF00008BD0000001001400014014030B5002284
:100B00008B071C0F0F2303FA04F20B4B8C1053F8C6
:100B100024309343084C8D1044F8253023468C1024
:100B200053F824308C07240F00FA04F42343024CBA
:100B30008D1044F8253030BD080001402DE9F0410A
:100B4000024600250026002000230024002791F8FB
:100B500003C00CF00F0591F803C00CF0100CBCF1B1
:100B6000000F03D091F802C04CEA050591F800C0CF
:100B7000BCF1000F31D0146800202BE04FF0010CC5
:100B80000CFA00F3B1F800C00CEA03069E4220D133
:100B900083004FF00F0C0CFA03F7BC4305FA03FC7B
:100BA0004CEA040491F803C0BCF1280F06D14FF0C1
:100BB000010C0CFA00FCC2F814C00AE091F803C062
:100BC000BCF1480F05D14FF0010C0CFA00FCC2F843
:100BD00010C0401C0828D1D31460B1F800C0BCF18B
:100BE000FF0F34DD546800202EE000F1080C4FF0B8
:100BF000010808FA0CF3B1F800C00CEA03069E42A3
:100C000021D183004FF00F0C0CFA03F7BC4305FA17
:100C100003FC4CEA040491F803C0BCF1280F05D191
:100C200000F1080C08FA0CF8C2F8148091F803C01F
:100C3000BCF1480F07D100F1080C4FF0010808FA89
:100C40000CF8C2F81080401C0828CED35460BDE8D0
:100C5000F0810246002093680B400BB1012000E0B8
:100C600000207047416170470161704700BFFEE797
:100C700010B504462CB14FF480510548FFF7F2FF40
:100C800004E04FF480510248FFF7EEFF10BD000072
:100C9000001401402DE9F04106460F4614461D465A
:100CA0002B4622463946304600F010FA04FB05F088
:100CB0000249098800F0BDF8BDE8F081EE0000208F
:100CC00001B502E00098401E009000980028F9D17C
:100CD00008BD00002DE9F04F804689461646A6F172
:100CE00020001FFA80FA1E49096889881C4A126888
:100CF000D28801FB02F0C11700EB5171C1F3C707A5
:100D00001748006800680AFB070B15480068C3888D
:100D10001348006882884946404600F0D7F92C20E5
:100D200000F02CFB002416E0002510E01BF8040066
:100D300080212941084020B10A48008800F022FBA8
:100D400003E00948008800F01DFB681CC5B2082DAF
:100D5000ECDB601CC4B2BC42E6DBBDE8F08F0000F7
:100D6000E8000020EC000020EE00002070B50446F2
:100D70000D46002624E03046134909688988084456
:100D800012490988884205DD00260F480068C0889E
:100D9000204484B220460C490968C98808440C499B
:100DA0000988884201DD002600242A782146304641
:100DB000FFF790FF6D1C044800688088304486B2BD
:100DC00028780028D7D170BDE8000020E00000207E
:100DD000E200002000B597B00121080200F03AFEC1
:100DE00001200190042003908006079000200290CB
:100DF0000490059006900890099008200A90102011
:100E00000B9000200C900E900F9010904FF480509B
:100E10001190002012901390149001A81590169034
:100E200008A8FFF701FD01210020FFF7E3FC17B040
:100E300000BD10B502460B4600242C2000F09EFA9F
:100E400000BF03E0184600F09DFA641C9442F9D3F9
:100E500010BD000008B50121602000F00BFE03204A
:100E60008DF8020018208DF803004FF48040ADF893
:100E7000000069465B48FFF761FE4FF40040ADF8A3
:100E8000000069465748FFF759FE0120ADF8000001
:100E900069465448FFF752FE0220ADF8000069464B
:100EA0005048FFF74BFE8020ADF8000069464E48E1
:100EB000FFF744FE4FF48070ADF8000069464A48E1
:100EC000FFF73CFE4FF40070ADF80000694646485D
:100ED000FFF734FE4FF48060ADF8000069464248E9
:100EE000FFF72CFE4FF40060ADF8000069463E4865
:100EF000FFF724FE4FF48050ADF8000069463A48F1
:100F0000FFF71CFE4FF40050ADF80000694636486C
:100F1000FFF714FE4FF48040ADF8000069463248F8
:100F2000FFF70CFE4FF40040ADF8000069462E4874
:100F3000FFF704FE4FF48070ADF8000069462948C1
:100F4000FFF7FCFD4FF40070ADF80000694625483E
:100F5000FFF7F4FD4FF48060ADF8000069462148CA
:100F6000FFF7ECFD03208DF8020018208DF8030038
:100F70001020ADF8000069461A48FFF7DFFD202079
:100F8000ADF8000069461748FFF7D8FD8020ADF89E
:100F9000000069461348FFF7D1FD4FF40060ADF83B
:100FA000000069460F48FFF7C9FD10208DF80300C7
:100FB00003208DF802000220ADF8000069460A48BF
:100FC000FFF7BCFD10208DF8030003208DF8020010
:100FD0004FF48050ADF8000069460248FFF7AEFDBF
:100FE00008BD0000001401400018014000B5024691
:100FF000072A00DD00BD28480270104602EBD071C0
:101000004910A2EB410139B9F020244908804FF47E
:10101000A0702349088006E04FF4A0701F490880A3
:10102000F0201F490880362000F0A8F9082141EA85
:10103000421000F0A7F92A2000F0A0F9002000F0EB
:10104000A1F9002000F09EF914490988491EC1F356
:10105000072000F097F911490978491EC8B200F03D
:1010600091F92B2000F08AF9002000F08BF9002084
:1010700000F088F90A490988491EC1F3072000F0E9
:1010800081F907490978491EC8B200F07BF92C2084
:1010900000F074F900BFADE7E4000020E00000209C
:1010A000E200002010B5FFF7D5FEFFF793FE012008
:1010B000FFF7DEFD00F04EF900F034F8024800784A
:1010C000FFF794FF10BD0000E400002030B5044697
:1010D0000D462A2000F052F9201200F053F9E0B238
:1010E00000F050F9A118491EC1F30F2000F04AF991
:1010F000A118491EC8B200F045F92B2000F03EF9B6
:10110000281200F03FF9E8B200F03CF9E918491E56
:10111000C1F30F2000F036F9E918491EC8B200F0FB
:1011200031F930BD10B5CF2000F028F9002000F0D3
:1011300029F9812000F026F9302000F023F9ED2074
:1011400000F01CF9642000F01DF9032000F01AF9EA
:10115000122000F017F9812000F014F9E82000F0C7
:101160000DF9852000F00EF9102000F00BF9782021
:1011700000F008F9CB2000F001F9392000F002F965
:101180002C2000F0FFF8002000F0FCF8342000F0E4
:10119000F9F8022000F0F6F8F72000F0EFF8202030
:1011A00000F0F0F8EA2000F0E9F8002000F0EAF89A
:1011B000002000F0E7F8B12000F0E0F8002000F097
:1011C000E1F81B2000F0DEF8B62000F0D7F80A2086
:1011D00000F0D8F8A22000F0D5F8C02000F0CEF83A
:1011E000352000F0CFF8C12000F0C8F8112000F041
:1011F000C9F8C52000F0C2F8452000F0C3F845202A
:1012000000F0C0F8C72000F0B9F8A22000F0BAF84A
:10121000F22000F0B3F8002000F0B4F8262000F02F
:10122000ADF8012000F0AEF8E02000F0A7F80F20A4
:1012300000F0A8F8262000F0A5F8242000F0A2F87D
:101240000B2000F09FF80E2000F09CF8092000F021
:1012500099F8542000F096F8A82000F093F8462062
:1012600000F090F80C2000F08DF8172000F08AF8BC
:10127000092000F087F80F2000F084F8072000F024
:1012800081F8002000F07EF8E12000F077F80020DF
:1012900000F078F8192000F075F81B2000F072F8C3
:1012A000042000F06FF8102000F06CF8072000F028
:1012B00069F82A2000F066F8472000F063F839202A
:1012C00000F060F8032000F05DF8062000F05AF806
:1012D000062000F057F8302000F054F8382000F0D5
:1012E00051F80F2000F04EF8362000F047F8C820E3
:1012F00000F048F82A2000F041F8002000F042F801
:10130000002000F03FF8002000F03CF8EF2000F053
:1013100039F82B2000F032F8002000F033F80020DC
:1013200000F030F8012000F02DF83F2000F02AF8FE
:101330003A2000F023F8552000F024F8112000F0A6
:101340001DF80348FFF7BCFC292000F017F810BD7A
:10135000FCBF020010B502210748FFF783FC40F6EE
:10136000FF20FFF7ADFC02210348FFF77DFC40F6AC
:10137000FF20FFF7A5FC10BD001801404FF0C04151
:101380000880704701490880704700000000026033
:101390002DE9F04781468A4614461D462B462246D3
:1013A00051464846FFF792FE2C20FFF7E7FF002644
:1013B00020E000271AE000BF4FF0000820200F496E
:1013C00048610F48006800F47F48202008614861A8
:1013D0000B480068C0F3072040EA08082020086195
:1013E00000BF4046FFF7CEFF781C87B2AF42E2DB7A
:1013F000701C86B2A642DCDBBDE8F087001001401D
:10140000080C01402DE9FF5F834615461E46334612
:101410002A4658460199FFF759FE2C20FFF7AEFFE8
:10142000002738E04FF0000831E000BF0024202002
:101430001B4948611B48006800F47F442020086174
:10144000486118480068C0F3072004432020086161
:1014500000BF4FEA142904F0FF0A4946124801F080
:10146000A3FD00BF8021104801F024FD0028F9D021
:1014700051460D4801F098FD00BF80210A4801F057
:1014800019FD0028F9D008F101001FFA80F8B045D5
:10149000CBDB781C87B2AF42C4DBBDE8FF9F000006
:1014A00000100140080C01400038014008B501213E
:1014B000142000F0DFFA0120ADF8000004208DF8C0
:1014C000030069460748FFF739FB4FF40050ADF8B9
:1014D000000004208DF8030069460348FFF72EFB47
:1014E00008BD0000000801400010014070B504462E
:1014F0000D4629462046FFF7ACFB012808D100BF66
:1015000029462046FFF7A5FB0128F9D0012070BD30
:101510000020FCE70148006870470000E800002058
:10152000024A1080024A118070470000EC0000203F
:10153000EE0000200149086070470000E80000202C
:1015400008B50121082000F095FA2020ADF8000030
:1015500010208DF8030003208DF8020069460F4823
:10156000FFF7ECFA0120ADF8000069460B48FFF7E1
:10157000E5FA0220ADF8000069460848FFF7DEFAF8
:1015800020210648FFF770FB01210448FFF76CFBA0
:1015900002210248FFF768FB08BD0000000C014073
:1015A00000BFFEE7704708B54FF4C06000F048F890
:1015B00031208DF8000000208DF801008DF8020028
:1015C00001208DF80300684600F002F808BD000015
:1015D00070B5002100230F22C47804B3154C246891
:1015E00004F4E064C4F5E064210AC1F10403CA40D4
:1015F000447804FA03F184781440214309010E4C25
:101600000678A155047804F01F050124AC40057844
:101610006D11AD0005F1E025C5F8004109E0047841
:1016200004F01F050124AC40044D0678761145F8FE
:10163000264070BD0CED00E000E400E080E100E039
:1016400002490143024A1160704700000000FA0598
:101650000CED00E070B50646301D092821D2DFE808
:1016600000F01D1A1714110E0B080500482406255A
:101670001AE03824062517E02824062514E018244B
:10168000062511E0082406250EE008240E250BE0AF
:1016900018240E2508E028240E2505E038240E2500
:1016A00002E000BF00BF00BF00BF21469B2000F04A
:1016B000B3FB2946AB2000F0AFFB70BD10B504466C
:1016C00014F1040F0EDB042C0CDC201D0007010EAE
:1016D000A72000F0A1FB201D0007010EA82000F0AC
:1016E0009BFB01E000BF00BF10BD10B5044614F124
:1016F000040F0BDB042C09DCC4F104003022A2EB44
:101700008000C1B29C2000F087FB01E000BF00BF59
:1017100010BD10B500F044FAFFF720F801F04AFCC4
:1017200010BD000038B50024002000908021122058
:1017300000F072FB08B9002038BD0B220121684679
:1017400000F06AFA08B90020F6E79DF800002128A9
:1017500014D100240DE00B4A02EB44025178094AEF
:1017600012F8140000F058FB08B90020E4E7601CF0
:1017700084B2054800788442EDDB01E00020DBE71D
:101780000120D9E742000020DC00002010B504460B
:10179000062C79D2DFE804F003142D465F79FF218F
:1017A000132000F039FB65210E2000F035FB0021ED
:1017B0002D2000F031FB00212E2000F02DFB70E0E9
:1017C000FD21132000F028FB5A21012000F024FB0A
:1017D0005C21022000F020FB65210E2000F01CFBA4
:1017E00000212D2000F018FB00212E2000F014FB1A
:1017F00057E0FD21132000F00FFB5821012000F0DD
:101800000BFB6021022000F007FB65210E2000F099
:1018100003FB00212D2000F0FFFA00212E2000F014
:10182000FBFA3EE0FD21132000F0F6FA84210120AE
:1018300000F0F2FA4C21022000F0EEFA65210E20B1
:1018400000F0EAFA00212D2000F0E6FA00212E2017
:1018500000F0E2FA25E0FD21132000F0DDFA9621E8
:10186000012000F0D9FA4021022000F0D5FA6521CC
:101870000E2000F0D1FA00212D2000F0CDFA002139
:101880002E2000F0C9FA0CE008E0FF21132000F040
:10189000C3FAE5210E2000F0BFFA02E000BF00BF4E
:1018A00000BF00BF10BD10B50446072C58D2DFE8BA
:1018B00004F004111E2B384552000621A62000F02A
:1018C000ABFA8021602000F0A7FA8021612000F0AF
:1018D000A3FA48E02621A62000F09EFA802160208D
:1018E00000F09AFA8021612000F096FA3BE01E2178
:1018F000A62000F091FAA021602000F08DFA40218E
:10190000612000F089FA2EE01E21A62000F084FA62
:101910004021602000F080FAA021612000F07CFAD4
:1019200021E01E21A62000F077FA8021602000F03F
:1019300073FAC021612000F06FFA14E01E21A62086
:1019400000F06AFA6021084600F066FA6021612022
:1019500000F062FA07E04621A62000F05DFA02E0FE
:1019600000BF00BF00BF00BF10BD2DE9F843064611
:101970000F4614461D46DDF82080B8F1000F04D153
:101980004621122000F048FA03E00621122000F060
:1019900043FA17220121684600F03EF99DF8000045
:1019A00000EBA60000F0FF094946172000F034FACA
:1019B000C4F38701182000F02FFA1922012168468C
:1019C00000F02AF99DF8000000EB670000F0FF0925
:1019D0004946192000F020FAC5F347011A2000F00B
:1019E0001BFA32220121684600F016F904F00300C8
:1019F0009DF80010084305F0010140EA810006F05F
:101A0000030140EA011007F0010140EA811949464B
:101A1000322000F001FAC4F38701292000F0FCF91C
:101A2000C5F347012C2000F0F7F92A22012168466E
:101A300000F0F2F804F003009DF80010084305F0F0
:101A4000010140EA810949462A2000F0E5F9BDE894
:101A5000F883704729B1064A52690243044B5A6120
:101A600004E0034A52698243014B5A617047000007
:101A70000010024029B1064A92690243044B9A6160
:101A800004E0034A92698243014B9A617047000067
:101A90000010024030B500210022002400232D4D0B
:101AA0006D6805F00C0121B1042905D0082923D166
:101AB00005E0294D056022E0274D05601FE0254D1A
:101AC0006D6805F47012234D6D6805F480340225AD
:101AD00005EB92421CB9214D554305600BE01D4DAD
:101AE0006D6805F400351DB11C4D5543056002E0DD
:101AF000194D5543056002E0174D056000BF00BF5A
:101B0000144D6D6805F0F0010909154D6B5C056811
:101B1000DD4045600F4D6D6805F4E061090A104D28
:101B20006B5C4568DD4085600A4D6D6805F4605169
:101B3000C90A0B4D6B5C4568DD40C560054D6D689D
:101B400005F44041890B074D6B5CC568B5FBF3F5A7
:101B5000056130BD0010024000127A0000093D000E
:101B6000140000202400002010B540210B48FFF78E
:101B700079F800F071F980210848FFF773F800F058
:101B80006BF940210548FFF76FF800F065F9402137
:101B90000248FFF767F800F05FF910BD0010014040
:101BA00008B501211020FFF765FF4020ADF80000C7
:101BB00003208DF8020014208DF8030069460748C1
:101BC000FEF7BCFF01211020FFF754FF8020ADF885
:101BD000000069460148FEF7B1FF08BD0010014052
:101BE00010B540210B48FFF73DF800F035F9802192
:101BF0000848FFF739F800F02FF940210548FFF7B2
:101C000033F800F029F940210248FFF72BF800F0E3
:101C100023F910BD0010014070B505460C4616466C
:101C200000F08EF808B9002070BD422000F05CF88A
:101C300000F0CCF818B900F0ADF80020F4E7304619
:101C400000F052F800F0C2F800F0A4F800F078F8C4
:101C500008B90020E8E7432000F046F800F0B6F8A5
:101C600018B900F097F80020DEE70CE000F012F859
:101C70002870012C02D1FFF7B3FF01E0FFF774FFDA
:101C80006D1C601E84B2002CF0D100F083F801209E
:101C9000CAE7000070B50825002480211148FEF72E
:101CA000E3FF14E06006040E40210E48FEF7DAFF61
:101CB00000F0D2F840210B48FEF7D6FF00F0CCF838
:101CC00080210848FEF7C5FF08B144F00104280050
:101CD000A5F10101CDB2E5D140210248FEF7C2FFD6
:101CE000204670BD0010014070B5044608251BE079
:101CF00040211248FEF7B6FF00F0AEF804F0800075
:101D000020B180210D48FEF7AFFF03E080210B4892
:101D1000FEF7A8FF6006040E00F09EF84021074879
:101D2000FEF7A2FF00F098F82800A5F10101CDB25E
:101D3000DED140210148FEF795FF70BD0010014043
:101D400010B580211248FEF78FFF40211048FEF7A2
:101D50008BFF00F081F880210D48FEF77AFF08B96B
:101D6000002010BD80210A48FEF77CFF00F074F8C7
:101D700080210748FEF76DFF08B10020F1E78021C0
:101D80000348FEF76FFF00F067F80120E9E7000065
:101D90000010014010B540210B48FEF763FF00F032
:101DA0005BF880210848FEF75DFF00F055F8402100
:101DB0000548FEF759FF00F04FF880210248FEF772
:101DC00053FF00F049F810BD0010014010B540214C
:101DD0001048FEF747FF00F03FF880210D48FEF75E
:101DE00043FF00F039F840210A48FEF73DFF00F0BC
:101DF00033F880210748FEF72CFF28B14021054821
:101E0000FEF730FF002010BD40210248FEF72AFFF8
:101E10000120F8E70010014070B504460D46FFF7B9
:101E20008FFF08B9002070BD4220FFF75DFFFFF76C
:101E3000CDFF18B9FFF7AEFF0020F4E7E0B2FFF7DF
:101E400053FFFFF7C3FF2846FFF74EFFFFF7BEFF24
:101E5000FFF7A0FF0120E6E74FF4C87001E0411E44
:101E600088B20028FBD170477CB5054600240020CD
:101E70000090019000F0E2F800F0007010B10E2424
:101E800020467CBD3D49098888B26946FEF740FD81
:101E900004460CB12046F4E7012D36D1019800F438
:101EA000802000282ED0354800880004344908607E
:101EB00037204860402088600020C860A802086180
:101EC000084600F0F9F83720FEF794FA04460CB102
:101ED0002046D6E702202A490860062048604020B4
:101EE00088600020C8604FF480600861084600F0F8
:101EF000E3F80620FEF77EFA04460CB12046C0E760
:101F00002046BEE725242046BBE7019800F4803038
:101F100078B31A48008800041949086037204860DF
:101F2000402088600020C8604FF480600861084647
:101F300000F0C2F83720FEF75DFA04460CB12046E7
:101F40009FE700200E490860062048604020886016
:101F50000020C8604FF480600861084600F0ACF8CB
:101F60000620FEF747FA04460CB1204689E72046D2
:101F700087E7FFE72524204683E7000014010020BF
:101F80006C12002001498863704700000080014006
:101F900001498863704700000080014001490860E2
:101FA00070470000A00030420149086070470000FF
:101FB0008C05304200210A4B02685A6242689A62DC
:101FC0001A46D16A21F0F701D0E902231A430369C6
:101FD0001A4343691A431143014AD1627047000012
:101FE0000080014000200649086048608860C860A1
:101FF00048628862C862034888630020C8637047EB
:1020000000800140FF07C00001480069C0B270476E
:102010000080014001460020034A526B0A400AB189
:10202000012000E000207047008001400248006865
:1020300000F00300704700000080014008B5014631
:10204000002000900248084400900098006808BDF5
:102050001480014010B500F027FC10BD29B1064ADC
:10206000D26B0243044BDA6304E0034AD26B82432F
:10207000014BDA63704700000080014000210A4AEA
:10208000516847F6FF629143027D83681A434368B3
:102090001A43C3681A4303681A4303691A43114376
:1020A000014A51607047000000800140014800680B
:1020B00070470000808001400021094B02689A604F
:1020C0001A46D1686FF30A01D0E901231A43C368A5
:1020D0001A4303691A431143014AD1607047000053
:1020E000008001400549096821F00301034A11609D
:1020F00011460968014311607047000000800140EB
:1021000010B50248FEF75AFA10BD0000002000107A
:1021100030B58BB005460C461348FEF735FA002162
:102120001248FEF73FFA12480090019500200290F5
:10213000A008039000200490802005908000069065
:1021400080000790002008904FF400500990002074
:102150000A9069460548FEF747FA01210348FEF751
:1021600021FA0BB030BD000000F000104404024022
:102170008080014030B58BB005460C461348FEF711
:1021800003FA00211248FEF70DFA1248009001955B
:1021900010200290A0080390002004908020059059
:1021A0008000069080000790002008904FF40050B7
:1021B000099000200A9069460548FEF715FA0121AA
:1021C0000348FEF7EFF90BB030BD000000F000103F
:1021D000440402408080014070B504460025214837
:1021E0000068032802D12725284670BD1D480068D5
:1021F00038B11C480068012803D01A48006802283A
:102200002ED1B4F5805F02D127252846EDE7B4F53D
:10221000006F14D10120FFF727FE054605BB012002
:102220001149087500200860486088604FF400601C
:10223000C860002008610846FFF720FF10E000207A
:10224000FFF712FE05465DB9012007490875002019
:10225000086048608860C86008610846FFF70EFFA4
:102260002846C2E7100100205412002030B5014674
:1022700000200022AC4B1B7881F84E30AB4B1B8802
:10228000A1F84C30AA4B1B681A0E93090B70C2F3CD
:1022900083034B7002F003038B70A54B1B68C3F3E1
:1022A0000742CA70A24B1B88C3F307220A71A04BD6
:1022B0001A784A715B681A0E1301CB809C4B5B68DD
:1022C000C3F30742CB8843EA1213CB8002F00F031B
:1022D0000B72974B9B88C3F30722D3094B72C2F34F
:1022E00080138B72C2F34013CB72C2F300130B73D3
:1022F00000234B738C4B1B681BB18B4B1B68012B52
:102300003CD193071B0D0B61894B1A790B6943EA8A
:1023100082030B61864B9B681A0E0B6943EA92138A
:102320000B61C2F3C2030B7502F007034B75804BC0
:102330009B68C3F3074253098B75C2F38203CB75C5
:1023400093075B0F0B767A4B1B89C3F307220B7E37
:1023500043EAD2130B760B695B1C4B640C7E4B6C0F
:10236000A41C0125A5406B434B640C7A0123A340B8
:102370008B64D1E9113463434B6421E06A4B1B68E1
:10238000022B1DD16A4B1A7993069B0A0B61684B8D
:102390009B681A0E0B6943EA02230B61644B9B682E
:1023A000C3F307420B6913430B61614B1B89C3F3F2
:1023B00007220B695B1CDB044B644FF400738B64D6
:1023C000C2F3801301F8193F93065B0E4B70584B14
:1023D0001A7A4B7843EAD2134B7002F07F038B706A
:1023E000534BDB681A0ED309CB70C2F341130B7148
:1023F000C2F382034B7193071B0F8B714C4BDB684D
:10240000C3F307428B7943EA92138B71C2F34013F3
:10241000CB7100230B7202F001034B72444B9B897A
:10242000C3F30722D3098B72C2F38013CB72C2F3BA
:1024300040130B73C2F300134B73C2F381038B730E
:1024400002F00303CB733A4B1A7B53080B7401233E
:102450004B74384B1B681A0ECA741939354B1B68FC
:10246000C3F307421402CC85324B1B88C3F3072207
:10247000CB8D1343CB852F4B1A7814060C635B6806
:102480001A0E0B6B43EA02440C632A4B5B68C3F3DE
:1024900007420B6B43EA02240C63264B9B88C3F371
:1024A00007220B6B13430B63224B1A7934235A54C4
:1024B000204B9B681A0E35235A541E4B9B68C3F35E
:1024C000074214068C631B4B1B89C3F307228B6BDB
:1024D00043EA02448C63174B1A7A8B6B43EA02245B
:1024E0008C63144BDB681A0E8B6B13438B63114B9D
:1024F000DB68C3F307423C235B5C43EA12143C23D2
:102500005C5413071C0DCC870A4B9B89C3F307222D
:10251000CB8F1343CB87074B1A7B540840235C5463
:10252000012441235C5430BD10010020140100201F
:10253000D4110020E411002008B500200090684666
:1025400000F06CFA08B1FF2008BD0098C0F34320EA
:10255000FAE710B50424FFF7EFFF0446042C01D17D
:10256000002010BDFF2C01D10220FAE70120F8E77E
:1025700010B50024FFF717F8FEF798FAFFF732FDC1
:1025800000F0CEF804460CB1204610BD00F02AF849
:1025900004460CB12046F8E70120104908750020D8
:1025A000086048608860C86008610846FFF766FDFB
:1025B0001CB90B48FFF75AFE044634B90849B1F874
:1025C0004C10080400F010FA044624B94FF40060DF
:1025D000FFF702FE04462046D7E700005412002011
:1025E0000412002038B5002401200090FFF71EFDE2
:1025F00010B92524204638BD44480068042828D056
:1026000000204349086002204860C0208860002004
:10261000C8604FF4806008610846FFF74DFDFDF784
:10262000FDFE04460CB12046E5E70020FFF706FD5D
:10263000384908600420FFF701FD3649486008204A
:10264000FFF7FCFC334988600C20FFF7F7FC3149A9
:10265000C8602E48006858B12C480068012807D08F
:102660002A480068062803D028480068022816D1A6
:10267000002027490860032048604020886000202F
:10268000C8604FF4806008610846FFF715FD694691
:102690000320FDF705FF04460CB12046ABE71B48BD
:1026A000006804282ED0BDF800001B490860BDF862
:1026B000000000041649086009204860C0208860B6
:1026C0000020C8604FF4806008610846FFF7F4FC02
:1026D000FDF7A4FE04460CB120468CE70020FFF76E
:1026E000ADFC0E4908600420FFF7A8FC0B494860C8
:1026F0000820FFF7A3FC094988600C20FFF79EFC27
:102700000649C8600024204675E70000100100203B
:102710006C120020E411002014010020D4110020CC
:102720002DE9F0410024002600250027A046B22014
:10273000594908750020086048608860C8600861D1
:102740000846FFF79BFC0320FFF7CCFC0120FFF7B6
:1027500025FC00205149086048608860C8604FF43B
:10276000806008610846FFF7A7FCFDF72DFE0446D0
:1027700014B12046BDE8F0814FF4D5704749086098
:1027800008204860402088600020C8604FF48060C6
:1027900008610846FFF790FCFDF7D0FE04462CB90F
:1027A00001203F4908604FF0804812E000203B497B
:1027B000086037204860402088600020C8604FF4DF
:1027C000806008610846FFF777FC3720FDF712FEAE
:1027D0000446002031490860372048604020886066
:1027E0000020C8604FF4806008610846FFF764FC71
:1027F0003720FDF7FFFD0446002C4AD136E00020CB
:102800002649086037204860402088600020C86062
:102810004FF4806008610846FFF74EFC3720FDF753
:10282000E9FD04460CB12046A4E71E4848EA000032
:102830001A49086029204860402088600020C8604C
:102840004FF4806008610846FFF736FCFDF70CFE88
:1028500004460CB120468DE70020FFF7EFFB06464B
:10286000012080EAD67080F001076D1C1FB94FF679
:10287000FF708542C3D34FF6FF70854202D31B24FD
:10288000204677E706F08040060002D00220044987
:10289000086020466EE70000541200206C120020F1
:1028A000100100200000108010B5114800680128B8
:1028B0000BD100200F49886040F24C40C8600C20CA
:1028C000FDF798FD0C49087002E000200A490870E5
:1028D0004FF48070FFF75CFB00214FF48070FFF72E
:1028E000BDFB0120054908600348007810BD0000C9
:1028F00018010020008001401C0100202001002060
:102900002DE9F04180460D4614461E460027002062
:102910002E4908702E49086001202E4908600020C9
:102920002D49C8622D480068022801D104026D0AB1
:102930002B48046010202A4948604020886000200D
:10294000C8604FF4806008610846FFF7B5FB1020AF
:10295000FDF750FD074617B13846BDE8F0814FF04E
:10296000FF302049086006FB04F048609020886032
:102970000220C86000200861012048610846FFF776
:1029800019FB1748056012201549486040208860EF
:102990000020C8604FF4806008610846FFF78CFB98
:1029A0001220FDF727FD07460FB13846D5E7012174
:1029B0000802FFF753FB0120FFF7F6FA06FB04F1CC
:1029C0004046FFF7A5FB3846C7E700001C01002082
:1029D000200100201801002000800140100100208B
:1029E0006C1200208012002070B5044600250A48B1
:1029F0000460072008494860402088600020C860C3
:102A00004FF4806008610846FFF756FB0720FDF78A
:102A1000F1FC0546284670BD6C12002070B50446D6
:102A200000250A48008800040949886040F24D40AA
:102A3000C8600D20FDF7DEFC05460DB1284670BDCF
:102A40000348406920602846F9E70000140100208F
:102A50000080014010B5002400BFFFF751FB30B9E2
:102A60000748006818B9074800780028F5D00548DD
:102A7000007810B10348007810BD2046FCE7000044
:102A8000200100201C01002010B5002400BFFFF72A
:102A900037FB30B90948006818B9094800780028A0
:102AA000F5D00748007810B10548007810BD40F215
:102AB000FF50FFF767FA2046F8E7000020010020EA
:102AC0001C0100202DE9F84380460F4615461E469E
:102AD0000024002000904549087045490860012005
:102AE0004449086000204449C862444800680228FC
:102AF00001D105027F0A4248056010204049486024
:102B0000402088600020C8604FF48060086108465B
:102B1000FFF7D2FA1020FDF76DFC044614B12046F1
:102B2000BDE8F8833748008800043549086037203D
:102B30004860402088600020C8604FF480600861D1
:102B40000846FFF7B9FA3720FDF754FC04460CB1EC
:102B50002046E5E72A4806601720294948604020BA
:102B600088600020C8604FF4806008610846FFF765
:102B7000A3FA1720FDF73EFC04460CB12046CFE730
:102B80001F48076019201E494860402088600020C7
:102B9000C8604FF4806008610846FFF78DFA19207D
:102BA000FDF728FC04460CB12046B9E74FF0FF3092
:102BB0001549086006FB05F04860902088600020F9
:102BC000C8600861012048610846FFF7F3F9012158
:102BD0000802FFF743FA0120FFF7E6F906FB05F1CB
:102BE0004046FFF7C7FA20469AE700001C01002084
:102BF0002001002018010020008001401001002069
:102C00006C1200201401002080120020704710B5C3
:102C100000F002F810BD00000CB5002001900090FB
:102C20003348006840F480303149086000BF3048C4
:102C3000006800F4003000900198401C019000985A
:102C400018B90198B0F5A06FF1D12948006800F4D7
:102C5000003010B10120009001E0002000900098A9
:102C6000012843D12348006840F010002149086042
:102C70000846006820F0030008600846006840F03D
:102C8000020008601A4840681949486008464068D0
:102C900048600846406840F48060486008464068E4
:102CA00020F47C1048600846406840F4E810486012
:102CB0000846006840F08070086000BF0C4800685B
:102CC00000F000700028F9D00948406820F00300A7
:102CD000074948600846406840F00200486000BF6D
:102CE0000348406800F00C000828F9D10CBD000032
:102CF000001002400020024010B500F083F800F000
:102D000079F800240CE0084850F8240030B1064857
:102D100050F82400401E044941F82400601CC4B24D
:102D2000032CF0DB10BD00003401002030B5164844
:102D300000684FF47A72B0FBF2F1B1F1807F01D3F9
:102D400001201DE021F07F40401E4FF0E022506145
:102D500050170F22002807DA13071D0E0B4B00F047
:102D60000F04241F1D5503E013071C0E084B1C54B1
:102D700000BF00204FF0E02290610720106100208A
:102D800008B100BFFEE730BD0000002018ED00E0F4
:102D900000E400E010B51348006840F0010011495C
:102DA000086008464068104908400E4948600846D7
:102DB00000680E4908400B4908600846006820F486
:102DC000802008600846406820F4FE0048604FF408
:102DD0001F008860FFF71BFF4FF000600449086088
:102DE00010BD0000001002400000FFF8FFFFF6FEDB
:102DF00008ED00E002480068401C01490860704787
:102E00000C0100200448006820B103480068401EFF
:102E100001490860704700000801002021B1828943
:102E200042F40052828104E082894DF6FF731A4019
:102E30008281704700B585B001210420FEF71AFE9B
:102E400001218803FEF716FE4FF40070ADF8100064
:102E500018208DF8130003208DF8120004A91348E0
:102E6000FDF76CFE4FF48060ADF8100004208DF883
:102E7000130004A90D48FDF761FE4FF4E130009006
:102E80000020ADF80400ADF80600ADF80800ADF87C
:102E90000C000C20ADF80A006946054800F018F84F
:102EA00001210348FFF7BAFF05B000BD000801404B
:102EB0000038014002460020B1F5007F00D100BF7C
:102EC00013880B400BB1012000E000207047000088
:102ED0002DE9F04786B005460E460024A24600BF05
:102EE000A1460027B08900B100BF2F462C8A4CF6BE
:102EF000FF700440F08804432C82AC894EF6F31036
:102F00000440B08831890843718908430443AC8187
:102F1000AC8A4FF6FF400440B0890443AC8201A85C
:102F2000FEF7B8FD1F48874202D1DDF810A001E08E
:102F3000DDF80CA0A88900F4004040B10AEBCA00FB
:102F400000EB0A1031684900B0FBF1F807E00AEB2A
:102F5000CA0000EB0A1031688900B0FBF1F8642068
:102F6000B8FBF0F004012009642101FB1089A88955
:102F700000F4004040B1322000EBC900B0FBF1F09A
:102F800000F00700044308E0322000EB0910642140
:102F9000B0FBF1F000F00F0004432C8106B0BDE857
:102FA000F087000000380140C1F3080282807047BA
:102FB00000BFFEE71FB501214120FEF75BFD0820A1
:102FC000ADF80C0004208DF80F0003208DF80E00E2
:102FD00003A91648FDF7B2FD03210220FDF78EFD7F
:102FE0000820019000208DF808000C208DF80900C1
:102FF00001208DF80A0001A8FDF766FB0820FDF707
:1030000047FB4FF4C060FEF71BFB09208DF8000062
:1030100000208DF8010003208DF8020001208DF8BA
:1030200003006846FEF7D4FA1FBD000000100140FF
:103030000FB4054B10B503A9044A029800F018F824
:1030400010BC5DF814FB000061390008300100205D
:1030500002E008C8121F08C1002AFAD17047704761
:10306000002001E001C1121F002AFBD170470000BF
:103070002DE9FF4F8BB09A460F460446002606E026
:1030800025280BD052460D999047641C761C207859
:103090000028F5D10FB03046BDE8F08F0025A946D5
:1030A00001227D4900E0054314F8013F203B02FA6C
:1030B00003F00842F7D120782E2817D114F8010F19
:1030C00045F004052A280ED06FF02F022078A0F1D9
:1030D000300109290AD809EB890102EB410100EB13
:1030E0000109641CF2E757F8049B641C20786C28E3
:1030F0000DD004DC4C2812D06A2811D104E07428C9
:103100000DD07A280CD10AE045F4001507E061786B
:1031100045F48015814202D1641C05F58015641CBC
:10312000207869283ED006DC0028B3D063280BD075
:10313000642804D136E0732810D075285CD052463C
:103140000D999047761CA5E017F8040B8DF8000048
:1031500000208DF80100E846012003E057F8048BB9
:103160004FF0FF3069074FF0000501D40AE06D1CF5
:103170004D450DDA8542FADB18F805100029F6D125
:1031800006E06D1C8542FCDB18F805100029F8D11B
:103190002E4404E018F8010B52460D9990476D1E1D
:1031A000F8D277E000200A90C5F302504FF00A0BE6
:1031B00002280CD001CFC117021E71F100020CDAF7
:1031C0000023D0EB030063EB01012D2208E0FF1D7B
:1031D00027F00707F7E80201EEE72A0504D52B22BE
:1031E0008DF82420012203E0EA070FD02022F7E720
:1031F0000DF12008089218E000200A90C5F3025053
:103200004FF00A0B022803D001CF00210022EFE784
:10321000FF1D27F00707F7E80201F7E75A460A9B68
:10322000FDF70CF8303208F8012D50EA0102F5D113
:10323000ADEB080000F1200B680701D44FF0010945
:10324000D94502DDA9EB0B0000E0002081460025F6
:1032500006E009A85246405D0D9990476D1C761C0A
:1032600008988542F5DB04E0302052460D999047DE
:10327000761CB9F10001A9F10109F5DC05E018F8A7
:10328000010B52460D999047761CBBF10001ABF142
:10329000010BF4DC641CFAE60928010070B5044651
:1032A0000D4600202071401EE0622946204600F0B5
:1032B00041FD08B1032070BD94F82E1294F82F023E
:1032C00041EA00204AF65521884201D00220F2E767
:1032D00094F86900010694F8680041EA004194F806
:1032E000670041EA002094F86610084320F07F4010
:1032F0000D49884201D10020DDE794F885000106E0
:1033000094F8840041EA004194F8830041EA0020E7
:1033100094F88210084320F07F400349884201D18D
:103320000020C8E70120C6E74641540070B50446B6
:10333000012514B1012C09D107E0FFF719F910B9E3
:1033400025F0010500E0012502E001E0012500BFB4
:1033500000BF284670BD000030B50346042013B1FD
:10336000012B1CD11AE0A9B101290BD0022902D0EE
:10337000032910D103E04FF4007414800BE0012402
:10338000146008E0084C646C074DAD6CB4FBF5F4B8
:10339000146000E000BF00BF002002E001E0042054
:1033A00000BF00BF30BD0000041200202DE9F0472F
:1033B000ADF5007D06460C4615461F464FF0040A43
:1033C0004FF0000816B1012E41D13FE004F0030098
:1033D00000B34FF0000913E02A466D1C0123694633
:1033E0000020FFF7E3FF8146B9F1000F00D00BE0AA
:1033F0004FF4007269462046FCF7B6FE04F50074EF
:103400003800A7F10107E7D100BF48460DF5007D60
:10341000BDE8F08769023B464FF400722046FFF793
:103420006FFA8046B8F1000F07D1FFF713FB804613
:1034300000BFFFF78EF80028FBD1B8F1000F02D0D3
:103440004FF0040A01E04FF0000A03E002E04FF001
:10345000040A00BF00BF5046D8E70146012011B161
:10346000012904D102E020F0010002E001E0012086
:1034700000BF00BF70472DE9F047ADF5007D07465E
:103480000C4615461E464FF0040A4FF0000826B9B8
:1034900004200DF5007DBDE8F08717B1012F3ED166
:1034A0003CE004F00300E8B14FF0000913E04FF4F2
:1034B000007221466846FCF757FE2A466D1C012320
:1034C00069460020FFF7D7FF8146B9F1000F00D011
:1034D00005E004F500743000A6F10106E7D100BF55
:1034E0004846D6E7690233464FF400722046FFF79C
:1034F000E9FA8046B8F1000F07D1FFF7C5FA804618
:1035000000BFFFF726F80028FBD1B8F1000F02D06A
:103510004FF0040A01E04FF0000A03E002E04FF030
:10352000040A00BF00BF5046B3E70000F7B582B001
:1035300016460398019001A800F024FA0546002DD4
:1035400002DA0B2005B0F0BD0E4850F825400CB152
:1035500000202070029810B10020029908700949DB
:10356000029841F82500029808B1012E01D00020F0
:10357000E8E7002203A902A800F006F8074638464B
:10358000E0E70000240100202DE9F74F8AB0002178
:103590000A9801600B9800F0F5F909900998002845
:1035A00003DA0B200DB0BDE8F08FE949099851F816
:1035B00020400CB90C20F5E70A980460207878B117
:1035C0006078FFF74AFF814609F0010040B90C9886
:1035D00020B109F0040008B10A20E3E70020E1E788
:1035E00000202070099860706078FFF79FFE814688
:1035F00009F0010008B10320D4E70C9820B109F0CC
:10360000040008B10A20CDE7607804F10A02022123
:10361000FFF7A2FE38B96089B0F5007F03DB60894F
:10362000B0F5805F01DD0120BCE700273946204668
:10363000FFF734FE0546012D01D09DBB32E0002688
:103640001AE004F5F77000EB061898F8040070B162
:1036500098F80B00010698F80A0041EA004198F832
:10366000090041EA002098F80810084300E0002013
:1036700002A941F82600761C042EE2D3002606B1EA
:10368000761E00BF02A850F8267027B139462046A2
:10369000FFF704FE00E0022005461DB1701C06463F
:1036A0000428EFD3032D01D101207BE70DB10D20BC
:1036B00078E73B20015D94F83C0041EA00206189F5
:1036C000884201D00D206DE74620015D94F8470047
:1036D00041EA002ABAF1000F0ED194F85700010612
:1036E00094F8560041EA004194F8550041EA002060
:1036F00094F8541040EA010AC4F818A04020005D74
:10370000E070E078012804D0E078022801D00D2094
:1037100048E7E0780AFB00FA3D20005DA070A07841
:1037200018B1A078411E084008B10D203AE74120A9
:10373000015D94F8420041EA002020816089C117B0
:1037400000EBD1614911228992FBF1F301FB1321B6
:1037500009B10D2026E74320015D94F8440041EAB9
:1037600000200890089870B994F85300010694F866
:10377000520041EA004194F8510041EA002094F8D7
:103780005010084308903E20015D94F83F0041EA44
:1037900000200190019808B90D2003E76089C11746
:1037A00000EBD1614911228992FBF1F20199514458
:1037B00011440791DDE90710884201D20D20F1E69E
:1037C000DDE90710401AA178B0FBF1FBBBF1000F57
:1037D00001D10D20E6E6012540F6F670834500D3C1
:1037E00002254FF6F670834500D303250BF1020046
:1037F0006061E76101983844206207983844A0620C
:10380000032D16D1208908B10D20CBE694F85F0076
:10381000010694F85E0041EA004194F85D0041EA37
:10382000002094F85C100843606260698000069094
:1038300014E0208908B90D20B4E6206A5044606283
:10384000022D02D16069400007E0207D00F00100F8
:10385000616901EB410100EB510006906089401E57
:10386000069908446189B0FBF1F0A169884201D949
:103870000D2097E64FF0FF302061E06080206071FE
:10388000032D5AD194F8601094F8610041EA0020A9
:10389000012852D1791C204600F04CFAE8BB0020E8
:1038A000607194F82E1294F82F0241EA00204AF633
:1038B0005521884241D13320005D01063220005D50
:1038C00041EA00413120005D41EA002094F83010C7
:1038D00008432049884230D194F81702010694F831
:1038E000160241EA004194F8150241EA002094F8DA
:1038F00014120843184988421FD194F81B0201068C
:1039000094F81A0241EA004194F8190241EA0020B1
:1039100094F818120843206100E00EE094F81F02AA
:10392000010694F81E0241EA004194F81D0241EAA2
:10393000002094F81C120843E060257007480088B6
:10394000401C80B205490880E08000202AE6000083
:103950002401002052526141727241612C01002009
:1039600070B504460D46E1B20548FFF71DFB00BFE8
:1039700080210348FFF79EFA0028F9D0204670BD49
:103980000038014070B502464FF0FF301568E5B1D0
:10399000116800E0491C0D78202D02D30D783A2DD6
:1039A000F8D10D783A2D0FD1146814F8015BA5F108
:1039B00030030A2B07D28C4205D1022B03D21846C2
:1039C0004D1C2946156070BD002000BFFBE70000BC
:1039D00008B500250024FDF765FB0320FDF706FB75
:1039E0009348FDF7A7FD00214FF47840FDF798FDBF
:1039F000904803889048028800210846FDF74AF95C
:103A0000FDF788FD00268DA13046FDF7AFF9FFF7E1
:103A100011FAFDF795FDFDF749FDFFF787F9012242
:103A20008BA18C48FFF782FD8B490870084600780F
:103A300010B18AA0FFF7FCFA93A0FFF7F9FAFDF79F
:103A400068FE20209A490860012008600220091DB4
:103A5000086011E0601CC4B2052C0DDD95A0FFF7D5
:103A6000E7FAFDF757FDC0884004060C98A13046E0
:103A7000FDF77CF900BFFEE7FDF754FE0128E9D110
:103A80009A49C87CFDF70FFF9849C87BFDF77EFE79
:103A9000964991F91000FDF711FE944991F9110032
:103AA000FDF7D8FD914991F91200FDF71EFE8F49EF
:103AB000C87CFDF7F8FE8D4800788C4E0090338965
:103AC000F288B1887088FDF750FF3146887BFDF79A
:103AD0008DFAFDF71FFDC0884004060C84A1304616
:103AE000FDF744F989A0FFF7A3FA00208E4908707A
:103AF0009DE08D480078022820D14FF07E51284665
:103B0000FCF744FB054600BF0420884908602020DC
:103B100087494861086104208449091F0860202002
:103B200083494861086100BF704E3389F288B189CA
:103B30007089FDF72DFC00207B49087001217B482E
:103B40001438FDF7D3FC01282CD1202058490860F7
:103B5000012008600220091D08606449887BFDF788
:103B600045FA4FF07E512846FCF710FB054600BF92
:103B700004206E49086020206D49486108610420D6
:103B80006A49091F0860202069494861086100BF2F
:103B9000002065490870554E3389F288B1897089D3
:103BA000FDF730FC4FF400516148FDF79FFC012800
:103BB0003DD100204D490870488088804FF4A070A6
:103BC000C880F02008810020488188810320887304
:103BD0000020C8730874487488740120C874C87CB5
:103BE000FDF761FE4149C87BFDF7D0FD3F4991F9E2
:103BF0001000FDF763FD3D4991F91100FDF72AFD25
:103C00003A4991F91200FDF770FD3849C87CFDF77B
:103C10004AFE36480078354E00903389F288B188E4
:103C20007088FDF7A2FE3146887BFDF7DFF960E77B
:103C3000F0000020E2000020E00000204248204F79
:103C4000563737323520546573742044656D6F00E4
:103C5000303A0000A40100202C0000200D0AC7EB20
:103C6000B8F8BFAAB7A2B0E5B2E5C8EBD2D1B8F1B7
:103C7000CABDBBAFB3C9666174B8F1CABDB5C453A0
:103C800044BFA8A1A30D0A000D0A202A2A204F56DE
:103C900037373235C9E3CFF1CDB7CAB5CAB1D2BAD9
:103CA000BEA7CFD4CABEC0FDB3CC2A2A200D0A00BD
:103CB000100C01400D0AC3BBD3D0BCECB2E2B5BDC1
:103CC0004F5637373235C9E3CFF1CDB70D0A000073
:103CD0004E6F204F5637373235206D6F64756C65E7
:103CE0002064657465637465642100002E00002003
:103CF0004F563737323520696E697469616C697A5D
:103D00006520737563636573732100000D0A4F5658
:103D100037373235C9E3CFF1CDB7B3F5CABCBBAF46
:103D2000CDEAB3C90D0A0000DD00002014080140EF
:103D30000010014070B504460D460026E06AA84216
:103D400010D0204600F010F806465EB960780123D6
:103D50002A4604F13001FFF729FB10B14FF0FF357F
:103D60000126E562304670BD2DE9F041044600278A
:103D70002079F8B1E56A607801232A4604F1300120
:103D8000FFF779FB08B1012714E000202071206AB9
:103D9000281AA16988420DD2E67809E0A069054495
:103DA000607801232A4604F13001FFF764FB761E98
:103DB000022EF3D23846BDE8F0810000000000007A
:103DC00000000000000000000000000000181818AB
:103DD00018181808000818000000000000342424F7
:103DE0002400000000000000000000000000162475
:103DF0007F2424247E2424000000000000083E6864
:103E000048681C1612127C10100000000061D29647
:103E1000740810162949C6000000000000003C6428
:103E20006438724ACE467F0000000000001818185F
:103E30001800000000000000000000000004081846
:103E400010303030301010180C0400000020100822
:103E5000080C0404040C08181020000000080A34A0
:103E60001C6A0800000000000000000000000000C4
:103E70001818187F18181800000000000000000033
:103E800000000000001818083000000000000000CA
:103E90000000003C000000000000000000000000E6
:103EA00000000000001818000000000000020604D6
:103EB0000C080810102020400000000000003C66A4
:103EC00042475B7342663C00000000000000187827
:103ED0004808080808087E000000000000003C4672
:103EE0000606040810207E000000000000007C068A
:103EF00006043C0202067C000000000000000C1CCE
:103F000014246444FF0404000000000000007E60EC
:103F100060607E0202067C000000000000001E308F
:103F20006048764242623C000000000000007E02D1
:103F300006040C08181030000000000000003C626D
:103F400042361C6642423C000000000000003C6615
:103F50004242661A020478000000000000000000DF
:103F600018180000001818000000000000000000F1
:103F700018180000001818083000000000000000A9
:103F800004183060100C0600000000000000000063
:103F900000007E007E000000000000000000000025
:103FA000301804060C1020000000000000301C0631
:103FB000060618100010100000000000001C22412E
:103FC00041DDB5A5A5AF94C0403C00000000181C21
:103FD000342426627E43C1000000000000007C46BD
:103FE00042467C4242427C000000000000001E204D
:103FF0004040404040603E000000000000007C4621
:1040000042434343424678000000000000007E60C7
:1040100060607E6060607E000000000000007E60E6
:1040200060607E60606060000000000000001E6054
:104030004040CE4242623E0000000000000042428A
:1040400042427E42424242000000000000007E18D0
:104050001818181818187E000000000000007C04D2
:1040600004040404044478000000000000004244FA
:10407000485070584C4442000000000000002020CE
:104080002020202020203E0000000000000062666A
:10409000675F5B5BC1C1C10000000000000062629D
:1040A00072525A4A4E4646000000000000003C6230
:1040B00043C3C3C343623C000000000000007C46D1
:1040C00042424678404040000000000000003C6250
:1040D00043C3C3C343623C180F00000000007C666A
:1040E00062667C6C646662000000000000003E6056
:1040F00040601C0602027C000000000000007F18E7
:104100001818181818181800000000000000424283
:104110004242424242623C00000000000000C143B3
:1041200042622624341C1800000000000000C1C1B7
:1041300041495B5B76666600000000000000436654
:104140003418181C2466C300000000000000C1429F
:1041500066341C18181818000000000000007E02C9
:10416000040C181020607E0000000000001C1010DD
:104170001010101010101010101C00000040202013
:10418000101008080C04060200000000003C0C0C93
:104190000C0C0C0C0C0C0C0C0C3C00000000181C43
:1041A0002462000000000000000000000000000089
:1041B000000000000000000000FF000000201000D0
:1041C00000000000000000000000000000000000EF
:1041D0003C06023E42467A0000000000004040409B
:1041E0005C62424242427C0000000000000000008D
:1041F0001E20604060203E0000000000000202021D
:104200003E62424242663A000000000000000000A8
:104210003C62427E40603E0000000000000F18102B
:10422000107E1010101010000000000000000000B0
:104230003F66426658403E43423C000000404040DA
:104240005C62424242424200000000000018180036
:104250007808080808087E000000000000040C0030
:104260007C040404040404040C7800000060606012
:10427000626C7870686462000000000000780808D2
:104280000808080808087E00000000000000000080
:10429000764B4B4B4B4B4B000000000000000000E6
:1042A0005C62424242424200000000000000000006
:1042B0003C62424342623C000000000000000000FB
:1042C0005C62424242427C404040000000000000EC
:1042D0003E62424242663A020202000000000000D2
:1042E0006E7263606060600000000000000000000B
:1042F0003E20203C06027C00000000000000101060
:10430000FE10101010101E00000000000000000041
:104310004242424242663A000000000000000000B3
:10432000434266243418180000000000000000001A
:10433000C1C15B5A5E66660000000000000000001C
:1043400062261C181C26620000000000000000000D
:1043500043426624341C181830E0000000000000BE
:104360007E060C1810207E0000000000000E1810C1
:104370001010307010101010180E000008080808F7
:10438000080808080808080808080000003018088D
:1043900008080C0E0808080818300000000000008B
:1043A0000000714B0600000000000000000000004B
:1043B00000000000000000000000000000000000FD
:1043C00000000000000000000000000000000000ED
:1043D00000000000000000000000000000000000DD
:1043E00000000000038001800180018001800180C5
:1043F00001800180018001800000000003C003C033
:1044000000000000000000000000000000000000AC
:10441000000000000E700E700E700C3000000000E6
:10442000000000000000000000000000000000008C
:10443000000000000000000000000000000000007C
:104440000000000000000618063806307FFE0C3021
:104450000C300C300C307FFE0C601C601860186053
:10446000000000000000000000000000000000004C
:10447000000000C000C00FF83CC831C031803D8052
:104480001F8003F001F8031C030C031C3FF83FE0FE
:10449000070006000000000000000000000000000F
:1044A00000001C007E0E630C631863307E6000C049
:1044B00001800300077C0EE61CC618C630C6607C6F
:1044C00000000000000000000000000000000000EC
:1044D000000000000FE01CF0387038701C601FC036
:1044E0000F003F8C71CC60EC607C70383CFC1FCEC0
:1044F00000000000000000000000000000000000BC
:104500000000000003C00180018001800000000065
:10451000000000000000000000000000000000009B
:10452000000000000000000000000000000000008B
:104530000000003000E001C0018003000700060019
:1045400006000E000E000E000E000600070003001D
:10455000038001C000E00030000000000000000007
:1045600000000C0006000380018001C000E0006034
:1045700000600070007000700060006000E000C02B
:104580000180038006000C00000000000000000015
:1045900000000000018011881DB803C007E03DBC89
:1045A0000188018000000000000000000000000001
:1045B00000000000000000000000000000000000FB
:1045C0000000000000000000000001800180018068
:1045D000018001807FFE0180018001800180000058
:1045E00000000000000000000000000000000000CB
:1045F00000000000000000000000000000000000BB
:104600000000000000000000000003C003C001C063
:1046100001C003801F000000000000000000000037
:10462000000000000000000000000000000000008A
:10463000000000000FF0000000000000000000007B
:10464000000000000000000000000000000000006A
:10465000000000000000000000000000000000005A
:104660000000000000000000000003C003C003C001
:10467000000000000000000000000000000000003A
:1046800000000000001800380030006000E000C0AA
:1046900001C001800300030006000E000C001C0096
:1046A00018003000000000000000000000000000C2
:1046B0000000000001800FF01C38381C301C707E98
:1046C00070EE738E7E0E7C0C300C381C1E780FE062
:1046D00000000000000000000000000000000000DA
:1046E00000000000000007C01FC039C001C001C0A9
:1046F00001C001C001C001C001C001C03FFC3FFCBE
:1047000000000000000000000000000000000000A9
:104710000000000003801FF018380038001800382F
:104720000038007001E0038007001C003FFC3FFCE4
:104730000000000000000000000000000000000079
:104740000000000007801FF00038003800380030FB
:1047500007E007F00038001C001C001820F83FE0BC
:104760000000000000000000000000000000000049
:1047700000000000000000F001B0033007300E30F0
:104780001C30383070307FFE7FFE0030003000304B
:104790000000000000000000000000000000000019
:1047A0000000000000001FF8180018001800180092
:1047B0001FE000F8001C001C001C003800F01FC0A7
:1047C00000000000000000000000000000000000E9
:1047D00000000000000003F80F001C00180030006B
:1047E00037F83C3C300C300C380C381C1E380FF0BD
:1047F00000000000000000000000000000000000B9
:104800000000000000003FFC001C00180038007091
:10481000006000E001C001800380070006000E0078
:104820000000000000000000000000000000000088
:104830000000000003C01FF8381C381C381C1C384E
:104840000FF007F01C78381C300C381C3C380FF087
:104850000000000000000000000000000000000058
:104860000000000003801FF03838301C701C700CF2
:10487000380C1FFC0FCC001C001800701FE01F80BC
:104880000000000000000000000000000000000028
:1048900000000000000000000000000003C003C092
:1048A0000180000000000000000003C003C003C03E
:1048B00000000000000000000000000000000000F8
:1048C00000000000000000000000000003C003C062
:1048D0000180000000000000000003C003C001C010
:1048E00001C003800F000000000000000000000075
:1048F00000000000000000000000003800F001C0CF
:1049000007001E0038000E00078001C00070003054
:104910000000000000000000000000000000000097
:104920000000000000000000000000000000000087
:104930003FFC000000003FFC3FFC000000000000C6
:104940000000000000000000000000000000000067
:10495000000000000000000000001C000F000380A9
:1049600001E00078001C007001E003800E000C00E4
:104970000000000000000000000000000000000037
:10498000000000000FC000F0003800380038003888
:1049900003F003800300030000000000078007808D
:1049A0000000000000000000000000000000000007
:1049B000000000E007F80C0C18063006700363F3E3
:1049C0006633C673CC63CC62CC66CCE6C7FCE00031
:1049D0006000700038101FF00000000000000000B0
:1049E00000000000000003C007E006E00E700E703B
:1049F0000C301C3818183FFC3FFC700E600EE007AE
:104A000000000000000000000000000000000000A6
:104A10000000000000003FF03838381C381C3838DF
:104A20003FF03FF8381C380C380C381C3FF83FE09A
:104A30000000000000000000000000000000000076
:104A40000000000000E007FC1E04380038003000C1
:104A5000700070007000300038003C001F9C07FCA4
:104A60000000000000000000000000000000000046
:104A70000000000000003FF03078301C300C300E99
:104A8000300E300E300E300E301C30383FF03FC04C
:104A90000000000000000000000000000000000016
:104AA0000000000000001FF818001800180018008F
:104AB0001FF81FF818001800180018001FF81FF83A
:104AC00000000000000000000000000000000000E6
:104AD0000000000000001FF818001800180018005F
:104AE0001FF81FF818001800180018001800180008
:104AF00000000000000000000000000000000000B6
:104B00000000000000F007FC1E04380030007000B8
:104B1000700070FC700C700C300C380C1F1C07FC03
:104B20000000000000000000000000000000000085
:104B3000000000000000300C300C300C300C300C49
:104B40003FFC3FFC300C300C300C300C300C300C87
:104B50000000000000000000000000000000000055
:104B60000000000000003FFC018001800180018006
:104B70000180018001800180018001803FFC3FFCB9
:104B80000000000000000000000000000000000025
:104B90000000000000001FF0003000300030003046
:104BA0000030003000300030003000701DE01FC0C9
:104BB00000000000000000000000000000000000F5
:104BC000000000000000381C387038E039C03B801D
:104BD0003F003F003B8039C038E038703838381C1F
:104BE00000000000000000000000000000000000C5
:104BF0000000000000001C001C001C001C001C0029
:104C00001C001C001C001C001C001C001FFC1FFCC6
:104C10000000000000000000000000000000000094
:104C2000000000000000381C7C3C6C3E6E6E666E1E
:104C300066CE63C6638661866006600660066006AF
:104C40000000000000000000000000000000000064
:104C50000000000000003C0C3C0C3E0C360C330CF9
:104C6000338C318C31CC30EC306C307C303C301CAF
:104C70000000000000000000000000000000000034
:104C80000000000001C00FF81C3C381C700E700EB4
:104C900060066006700E700E700C381C1E780FE0F7
:104CA0000000000000000000000000000000000004
:104CB0000000000000003FF0383C381C380C380C75
:104CC000381C38783FE038003800380038003800A9
:104CD00000000000000000000000000000000000D4
:104CE0000000000001C00FF81C3C381C700E700E54
:104CF00060066006700E700E700C381C1E780FE097
:104D0000018001C000FF003C000000000000000026
:104D10000000000000003FF03838381838183838E4
:104D200038F03FC038E0387038383838381C380E22
:104D30000000000000000000000000000000000073
:104D40000000000001E00FF83800380038003C0097
:104D50001F8003F00078001C001C001C38783FE026
:104D60000000000000000000000000000000000043
:104D70000000000000007FFE0180018001800180B2
:104D8000018001800180018001800180018001801B
:104D90000000000000000000000000000000000013
:104DA000000000000000300C300C300C300C300CD7
:104DB000300C300C300C300C300C381C1C380FF020
:104DC00000000000000000000000000000000000E3
:104DD000000000000000E006700E700E381C381C49
:104DE0001C181C380C300E70066007E003C003C0AE
:104DF00000000000000000000000000000000000B3
:104E00000000000000006006600660066006618623
:104E1000638673C673CE766C366C3C3C3C3C381C67
:104E20000000000000000000000000000000000082
:104E3000000000000000301C38181C380E7007E01D
:104E400003C003C007E00E701C381838381C700E01
:104E50000000000000000000000000000000000052
:104E6000000000000000700E700C381C1C380E7022
:104E7000066007E003C0018001800180018001809D
:104E80000000000000000000000000000000000022
:104E90000000000000003FFC001C0038007000E033
:104EA00001C0038007000E000C0018003FFC3FFC0F
:104EB00000000000000000000000000000000000F2
:104EC000000007F007F006000600060006000600D6
:104ED00006000600060006000600060006000600A2
:104EE00006000600060007F00000000000000000B9
:104EF0000000000018001C000C0006000700030062
:104F00000380018001C000C00060007000300038E4
:104F10000018000C0000000000000000000000006D
:104F200000000FE00FE000600060006000600060C3
:104F30000060006000600060006000600060006071
:104F40000060006000600FE0000000000000000052
:104F500000000000000003C006C006600C301818F6
:104F6000301C0000000000000000000000000000F5
:104F70000000000000000000000000000000000031
:104F80000000000000000000000000000000000021
:104F90000000000000000000000000000000000011
:104FA000000000000000FFFF000000000000000003
:104FB000000000001E000380000000000000000050
:104FC00000000000000000000000000000000000E1
:104FD00000000000000000000000000000000000D1
:104FE0000000000000000000000000001FF010386A
:104FF000001C001C0FFC1C1C381C381C3CFC1FDC5B
:1050000000000000000000000000000000000000A0
:105010000000000038003800380038003BF83E1C23
:105020003C1C380C380C380C380C381C3C781FE011
:105030000000000000000000000000000000000070
:1050400000000000000000000000000007F80E0053
:105050001C0038003800380038001C000F1807F812
:105060000000000000000000000000000000000040
:1050700000000000001C001C001C001C0FFC1C1C7D
:10508000381C301C301C301C301C383C1CFC0F9C65
:105090000000000000000000000000000000000010
:1050A0000000000000000000000000000FF01C38AD
:1050B000381C300C3FFC3000300038001E0C07FC60
:1050C00000000000000000000000000000000000E0
:1050D0000000003C01FE03800300030003007FFC8E
:1050E0007FFC030003000300030003000300030030
:1050F00000000000000000000000000000000000B0
:105100000000000000000000000000000FFE1C383E
:105110003818381818381FF03B8030003FF01FFC5B
:10512000300E700E381C1FF8000000000000000058
:105130000000000038003800380038003BF83E38E6
:105140003C1C381C381C381C381C381C381C381CBB
:10515000000000000000000000000000000000004F
:105160000000018003C003C0000000001FC001C098
:1051700001C001C001C001C001C001C001C03FFCAD
:10518000000000000000000000000000000000001F
:105190000000002000700070000000003FF0007070
:1051A000007000700070007000700070007000707F
:1051B0000070007020E03FC0000000000000000010
:1051C000000000001800180018001800183C1870A3
:1051D00018E01B801F001B8019E018701838181C7D
:1051E00000000000000000000000000000000000BF
:1051F000000000001FC001C001C001C001C001C00B
:1052000001C001C001C001C001C001C001C03FFC1C
:10521000000000000000000000000000000000008E
:105220000000000000000000000000006F3C79EE6C
:1052300071CE718E718E718E718E718E718E718E36
:10524000000000000000000000000000000000005E
:105250000000000000000000000000003BF83E38A5
:105260003C1C381C381C381C381C381C381C381C9A
:10527000000000000000000000000000000000002E
:105280000000000000000000000000000FF01C3CC7
:10529000381C700E700E700E700C381C1E780FE0EB
:1052A00000000000000000000000000000000000FE
:1052B0000000000000000000000000003BF83E1C61
:1052C0003C1C380C380C380C380C381C3C783FE04F
:1052D00038003800380038000000000000000000EE
:1052E0000000000000000000000000000FFC1C1C7B
:1052F000381C301C301C301C301C383C1CFC0F9CF3
:10530000001C001C001C001C00000000000000002D
:1053100000000000000000000000000019F81F1C41
:105320001C0C180E1800180018001800180018009F
:10533000000000000000000000000000000000006D
:105340000000000000000000000000000FF81C003A
:1053500018001E000FC001F80018001818381FF0C0
:10536000000000000000000000000000000000003D
:105370000000000000000600060006007FFC06009A
:10538000060006000600060006000700078401FC70
:10539000000000000000000000000000000000000D
:1053A000000000000000000000000000381C381C55
:1053B000381C381C381C381C381C383C1CFC0FDCD2
:1053C00000000000000000000000000000000000DD
:1053D000000000000000000000000000700C381CFD
:1053E00038181C380C300E70066007E003C003C08C
:1053F00000000000000000000000000000000000AD
:1054000000000000000000000000000060066006D0
:105410006186738E73CC33CC366C366C3C3C3C3836
:10542000000000000000000000000000000000007C
:10543000000000000000000000000000381C1C38C4
:105440000E7007E003C003C007E00E701C38381E62
:10545000000000000000000000000000000000004C
:10546000000000000000000000000000700C381C6C
:1054700038181C380C300E70066007E003C003C0FB
:10548000038007000E007C00000000000000000008
:105490000000000000000000000000001FF80038BD
:1054A000007000E001C0038007000C001FFC3FFCFF
:1054B00000000000000000000000000000000000EC
:1054C0000000007801F803800380038003800380DC
:1054D00003003F003E00030003800380038003803D
:1054E0000380038001C000F800000000000001807C
:1054F00001800180018001800180018001800180A4
:105500000180018001800180018001800180018093
:105510000180018001800180000000000000000087
:1055200000001E001F80018001C001C001C001C039
:1055300000C000FC007C00C001C001C001C001C06F
:1055400001C001C003801F00000000000000000037
:10555000000000000000000000000000000000004B
:105560001C003F0671CE60FC00000000000000003F
:10557000000000000000000000000000000000002B
:10558000000000000000000000000000000000001B
:10559000000000000000000000000000000000000B
:1055A00000000000000000000000000000000000FB
:1055B00000000000000000000000000000000000EB
:1055C00000000000000000000000000000000000DB
:1055D00000000000000000000000000000000000CB
:1055E000000000000000000000000000003C00007F
:1055F0003C00003C00003C00003C00003C00003C43
:1056000000003C00003C00003C00003C00003C006E
:10561000003C00003C00000000000000003C0000D6
:105620007E00003C000000000000000000000000C0
:10563000000000000000000000000000000000006A
:1056400000000000000000000000000003C3E003B1
:10565000C3E003C3C003C3C003C3C003C3C003C1CB
:10566000C00000000000000000000000000000007A
:10567000000000000000000000000000000000002A
:10568000000000000000000000000000000000001A
:10569000000000000000000000000000000000000A
:1056A00000000000000000000000000000000000FA
:1056B000000001E0E001C0E001C0E001C0E03FFF08
:1056C000FE3FFFFE03C1C00381C00381C00381C050
:1056D0007FFFFC7FFFFC07838007038007038007B1
:1056E00003800707800000000000000000000000A9
:1056F00000000000000000000000000000000000AA
:10570000000000000000000000000700000F000083
:105710000E0001FFF007FFF01F0E001E1E001E1CF2
:10572000001E1C000FDC0007FC0000FF80003FF0A3
:105730000038F800387800783C0070783071F83F15
:10574000FFE01FFF0000E00000E00000E0000000BC
:105750000000000000000000000000000000000049
:105760000000000000000000000000000F800F3F5C
:10577000E01E78703C7070707070E07071C03FE334
:10578000801FC700000E00001C0000780000F0F031
:1057900001E7FC03CF0E078E0E0F0E0E1E0E0E3C01
:1057A00007BC7003F80000000000000000000000CB
:1057B00000000000000000000000000000000000E9
:1057C00000000000000000000000000000000001D8
:1057D000FF0007FF800F03C00F03C00F03C00F07B8
:1057E00080079F0003FE0003F0000FF83C3E7C3C66
:1057F0003C1F3C780FF87807F87C01F03E03F81F57
:10580000FFFC07FE1F000000000000000000000079
:105810000000000000000000000000000000000088
:10582000000000000000000000000000003E00003A
:105830003C00003C00003C00003C00003C00003C00
:105840000000000000000000000000000000000058
:105850000000000000000000000000000000000048
:105860000000000000000000000000000000000038
:105870000000000000000000000000000000000028
:105880000000000000000000000000800001C000D7
:105890000780000F00001E00003C0000780000F0B0
:1058A0000000E00001E00001E00001C00003C000D2
:1058B00003C00001C00001E00001E00000F00000B2
:1058C000F000007800003C00001E00000F00000700
:1058D000C00001C000000000000000000000000047
:1058E00000000000000000000000000003C00001F4
:1058F000E00000F000007C00003E00001E00000FF1
:10590000000007800007800003800003C00003C080
:105910000003C00003C00003800007800007800070
:105920000F00001E00003C0000780000F00001E0C5
:1059300000038000000000000000000000000000E4
:10594000000000000000000000000000001C00003B
:105950001C000018000F18F007DBE0007F0000FFBC
:105960000007DBE00E1870001800001C00001C008F
:105970000000000000000000000000000000000027
:105980000000000000000000000000000000000017
:105990000000000000000000000000000000000007
:1059A00000000000000000000000000000000000F7
:1059B0000000000000000000000000003C00003C6F
:1059C00000003C00003C00003C00003C003FFFFCAD
:1059D0003FFFFC003C00003C00003C00003C00009D
:1059E0003C0000000000000000000000000000007B
:1059F00000000000000000000000000000000000A7
:105A00000000000000000000000000000000000096
:105A10000000000000000000000000000000000086
:105A20000000000000000000000000000000000076
:105A3000000000000000000000007C00007E00006C
:105A40007E00003E00001E00003C0000F80007E061
:105A50000004000000000000000000000000000042
:105A60000000000000000000000000000000000036
:105A70000000000000000000000000000000000026
:105A80000000000000000000000000000003FFE034
:105A900003FFE00000000000000000000000000024
:105AA00000000000000000000000000000000000F6
:105AB00000000000000000000000000000000000E6
:105AC00000000000000000000000000000000000D6
:105AD00000000000000000000000000000000000C6
